:060000000A128A110C280F
:10000800FE00030EF1000A08F2000A128A11892A7A
:100018000A128A110F2883120313B60183010A12E8
:100028008A11542A83160313181583160317871584
:10003800831603139A01831203132608AA002708BC
:10004800AB002808AC002908AD0002300310AA0D47
:10005800AB0DAC0DAD0DFF3E031D2A282D08F60093
:100068002C08F5002B08F4002A08F3002608AE0037
:100078002708AF002808B0002908B1000230031093
:10008800AE0DAF0DB00DB10DFF3E031D432840303E
:10009800B2004230B3000F30B4000030B5002E0873
:1000A800B2022F08031C2F0F5A285B28B30230080E
:1000B800031C300F60286128B4023108031C310F7B
:1000C80066286728B5023508FA003408F9003308AD
:1000D800F8003208F7000A128A1188200A128A11D9
:1000E80073088316031399001812831203139817C1
:1000F800181383160313181398168312031318166C
:10010800831603138C160800003083120313A4000F
:100118000030A3000030A2000030A100760875046A
:1001280074047304031999289A28E728A501A50AD5
:10013800AA280130A0000310F30DF40DF50DF60DFB
:10014800A00B9F280130A0002008A507F61FAD28A6
:10015800AE289D280130A0000310A10DA20DA30D0B
:10016800A40DA00BB02876087A02031DC5287508CF
:100178007902031DC52874087802031DC528730871
:100188007702031CC828C928D8287308F7027408FE
:10019800031C740FF8027508031C750FF902760822
:1001A800031C760FFA02211401300310F60CF50C2B
:1001B800F40CF30CFF3E031DD9280130A502031DE2
:1001C800E628E728AE282408F6002308F5002208C8
:1001D800F4002108F300080083120313A000200391
:1001E800031DF728F8281D2976087F3EF7007708B1
:1001F800A3002308F70004300310F70CFF3E031D8B
:1002080000297708F8007808A10023080F39F700BB
:100218007708A20021080A128A1171220A128A118B
:100228008312031322080A128A1171220A128A11F0
:10023800472902302006031D222923294729760849
:10024800BF3EF7007708A3002308F7000430031027
:10025800F70CFF3E031D2B297708F8007808A1004A
:1002680023080F39F7007708A20021080A128A111B
:1002780071220A128A118312031322080A128A11A0
:1002880071220A128A11080000300A128A113222D9
:100298000A128A110730F7007D30F600F60B522952
:1002A800F70B522903300A128A1171220A128A1195
:1002B800F930F6005F29F60B5E29622963290330BD
:1002C8000A128A1171220A128A116A2903300A1243
:1002D8008A1171220A128A1102300A128A117122B5
:1002E8000A128A1102300A128A1171220A128A111C
:1002F80008300A128A1171220A128A1100300A1271
:100308008A1171220A128A110C300A128A1171227A
:100318000A128A1100300A128A1171220A128A11ED
:1003280006300A128A1171220A128A110800F50091
:10033800BE29831603130F088F3940388F00D4293C
:10034800831603130F088F3950388F00D42983166A
:1003580003130F088F3960388F00D4297030831643
:1003680003138F04D429831603130F088F396038B9
:100378008F00D4297508F300F4017408003A0319B2
:10038800C629B7297308013A03199D29033A0319A5
:10039800A429063A0319AB290C3A0319B229B7293B
:1003A8000F140800F70077080F39F4007408F500F7
:1003B8007708F039F4007408F60083120313051463
:1003C8007608F40004300310F40CFF3E031DE729FF
:1003D80074080A128A1132220A128A11831203132C
:1003E80085140330F400F40BF729831203138510E6
:1003F80075080A128A1132220A128A11831203130B
:1004080085140330F400F40B072A831203138510B4
:10041800080001300A128A119B210A128A118316D8
:1004280003178801890183160313850186010A12BF
:100438008A1148210A128A11003083120313A90075
:100448000030A8002530A7008030A6000A128A11C3
:1004580016200A128A118B170B170800F300731C59
:10046800362A372A3B2A8312031305153E2A83129C
:1004780003130511F31C412A422A442A8515452AEB
:100488008511731D482A492A4B2A05164C2A05123C
:10049800F31D4F2A502A522A8516532A851208001E
:1004A8000A128A110D220A128A110A128A11A0222E
:1004B8000A128A11F601F60A01300A128A11F0208E
:1004C8000A128A118312031336080A128A11D621D6
:1004D8000A128A110A128A110C28F50083120313D2
:1004E800051075080A128A1132220A128A1183121B
:1004F80003138514C730F400812AF40B802A842A58
:10050800852A8312031385100800831203138C1E97
:100518008E2A8F2A992A0A128A11AD220A128A1162
:10052800F000700883120313B60072088A00710E77
:100538008300FE0E7E0E090000300A128A11712215
:100548000A128A1101300A128A1171220A128A11BA
:0A0558000800831203131A080800BC
:08400000FF3FFF3FFF3FFF3FC0
:04400E00D420FF3E7D
:00000001FF
