:060000000A128A110C280F
:10000800FE00030EF1000A08F2000A128A11B92C48
:100018000A128A110F28FA018313203084004A300B
:100028000A128A11DB240A128A1183010A128A1120
:10003800DF2983120313E4005230DC005C08DF0080
:10004800F0282530650603192A282B283728650843
:10005800DC00640884005C08831380000130DC0045
:100068005C08E407F028E0010130D107FF305107B0
:1000780084000A128A11AA230A128A11E500DC00F8
:10008800DD015D08003A03194A28F0285C08003AA7
:1000980003190229643A031955280D3A03195528FA
:1000A800F0285F08840083130008E200840A00082F
:1000B800E3000230DC005C08DF07E31F64286528E2
:1000C8006E280330DC005C08E004E209E309E20A78
:1000D8000319E30AE501E50A6508DC005C07013E4F
:1000E80084000A128A11AA230A128A11DD000A1250
:1000F8008A11AA230A128A11DE005E086302031D10
:1001080087285D08620203188A288B288C2896287D
:100118000130DC005C08E50705306506031D9528FD
:10012800962870286008033903199B289C28A7285B
:100138002D30DC00640884005C08831380000130E3
:10014800DC005C08E4076508DC005C08E100E728DF
:100158000A30CD000030CE006108DC005C07013EAB
:1001680084000A128A11AA230A128A11F3000A12B9
:100178008A11AA230A128A11F4006308F600620899
:10018800F5000A128A11ED220A128A1174088312E4
:100198000313D0007308CF000A128A1133230A12FE
:1001A8008A11831203134D08303EDD005D08E50017
:1001B8006508DC00640884005C0883138000013053
:1001C800DC005C08E407FF30DC005C08E107610A3A
:1001D800031DEF28F028AC280130D107FF30510764
:1001E80084000A128A11AA230A128A11DC005C0808
:1001F800E5006508031D01290229252864088400F3
:100208008313800108008316031318158316031738
:100218008715831603139A01831203135208D60015
:100228005308D7005408D8005508D90002300310E5
:10023800D60DD70DD80DD90DFF3E031D1B29590822
:10024800CD005808CC005708CB005608CA00520801
:10025800DA005308DB005408DC005508DD000230E2
:100268000310DA0DDB0DDC0DDD0DFF3E031D342917
:100278004030DE004230DF000F30E0000030E100A7
:100288005A08DE025B08031C5B0F4B294C29DF026E
:100298005C08031C5C0F51295229E0025D08031C0D
:1002A8005D0F57295829E1026108D1006008D00084
:1002B8005F08CF005E08CE000A128A1177210A1261
:1002C8008A11831203134A0883160313990018121C
:1002D800831203139817831603138C1683120313C0
:1002E8001813181608000030F7000030F600003028
:1002F800F5000030F400831203134D084C044B043E
:100308004A04031988298929D629F801F80A99295C
:100318000130F3000310CA0DCB0DCC0DCD0DF30B3E
:100328008E290130F3007308F807CD1F9C299D29F9
:100338008C290130F3000310F40DF50DF60DF70DBF
:10034800F30B9F294D085102031DB4294C08500294
:10035800031DB4294B084F02031DB4294A084E0255
:10036800031CB729B829C7294A08CE024B08031C21
:100378004B0FCF024C08031C4C0FD0024D08031C36
:100388004D0FD102741401300310CD0CCC0CCB0CE2
:10039800CA0CFF3E031DC8290130F802031DD529E8
:1003A800D6299D297708CD007608CC007508CB00A2
:1003B8007408CA0008000A128A1118240A128A113D
:1003C8000A128A11CE240A128A110A128A11842466
:1003D8000A128A110B3083120313E6006608D10053
:1003E8000230D2000030D3000330D4000030D500F2
:1003F8000430D6000030D7000230D8000030D900D1
:100408005F30DA000030DB0036300A128A111D2016
:100418000A128A11203083120313E6006608D100FD
:100428002108D3002008D2001430D4000030D500B1
:1004380022300A128A111D200A128A11F601F60AC0
:1004480001300A128A1142220A128A1136300A121F
:100458008A113D240A128A11F601F60A02300A129C
:100468008A1142220A128A1122300A128A113D2464
:100478000A128A11E9290A128A110C288312031315
:10048800CA004A03031D492A4A2A6F2A76087F3E72
:10049800F7007708CD004D08F70004300310F70C7B
:1004A800FF3E031D522A7708F8007808CB004D0854
:1004B8000F39F7007708CC004B080A128A11A124DB
:1004C8000A128A11831203134C080A128A11A124F2
:1004D8000A128A11992A02304A06031D742A752ABB
:1004E800992A7608BF3EF7007708CD004D08F70037
:1004F80004300310F70CFF3E031D7D2A7708F8002F
:100508007808CB004D080F39F7007708CC004B0866
:100518000A128A11A1240A128A11831203134C08A1
:100528000A128A11A1240A128A11080000300A123C
:100538008A1162240A128A110730F7007D30F6000A
:10054800F60BA42AF70BA42A03300A128A11A12455
:100558000A128A11F930F600B12AF60BB02AB42A29
:10056800B52A03300A128A11A1240A128A11BC2A58
:1005780003300A128A11A1240A128A1102300A12BF
:100588008A11A1240A128A1102300A128A11A1249E
:100598000A128A1108300A128A11A1240A128A1131
:1005A80000300A128A11A1240A128A110C300A1288
:1005B8008A11A1240A128A1100300A128A11A12470
:1005C8000A128A1106300A128A11A1240A128A1103
:1005D800080083120313CB01CC01730874040319B8
:1005E800F62AF72A2E2BCA01CA0A052B0130031056
:1005F800F30DF40DFF3E031DFB2A0130F7007708C9
:10060800CA07F41F082B092BFA2A01300310CB0D57
:10061800CC0DFF3E031D0A2B74087602031D162B12
:1006280073087502031C192B1A2B212B7308F5026A
:100638007408031CF603F6024B1401300310F40C83
:10064800F30CFF3E031D222B0130CA02031D2D2B84
:100658002E2B092B4C08F4004B08F30008008312DA
:1006680003134D084E0403193A2B3B2B6A2BF9014F
:10067800F90A492B01300310CD0DCE0DFF3E031DA5
:100688003F2B0130F8007808F907CE1F4C2B4D2B73
:100698003E2B4E085002031D532B4D084F02031CDE
:1006A800562B572B5D2B4D08CF024E08031CD00349
:1006B800D00201300310CE0CCD0CFF3E031D5E2B83
:1006C8000130F902031D692B6A2B4D2B5008CE000F
:1006D8004F08CD000800F500922B831603130F086E
:1006E8008F3940388F00A82B831603130F088F39D2
:1006F80050388F00A82B831603130F088F396038E2
:100708008F00A82B7030831603138F04A82B831631
:1007180003130F088F3960388F00A82B7508F30072
:10072800F4017408003A03199A2B8B2B7308013AC9
:100738000319712B033A0319782B063A03197F2BF7
:100748000C3A0319862B8B2B0F14080003308A00F0
:100758000408840A82070034013400340A3400345F
:1007680064340034E83403341034273425346434D2
:10077800253464343A3425346434253464342034DC
:100788002034203420344C3475347A343A342034CC
:100798002534643400344D346F3476343A3420349C
:1007A8002534643420342034543465346D34703442
:1007B8003A342034253464340034F70077080F398C
:1007C800F4007408F5007708F039F4007408F600AE
:1007D8008312031305147608F40004300310F40C94
:1007E800FF3E031DF22B74080A128A1162240A12B2
:1007F8008A118312031385140330F400F40B022CBE
:1008080083120313851075080A128A1162240A12CA
:100818008A118312031385140330F400F40B122C8D
:10082800831203138510080001300A128A116F23FE
:100838000A128A1183160317880189018316031384
:10084800850186010A128A119A220A128A11003039
:1008580083120313D5000030D4002530D300803034
:10086800D2000A128A1107210A128A118B170B1754
:10087800080083120313CC00CA01CB01562C4A0886
:100888004C07F8007808840000080A128A11E1234E
:100898000A128A11013083120313CA070318CB0AFC
:1008A8000030CB074A084C07F80078088400831307
:1008B8000008031D602C612C432C0800F300731CF6
:1008C800662C672C6B2C8312031305156E2C831270
:1008D80003130511F31C712C722C742C8515752CBF
:1008E8008511731D782C792C7B2C05167C2C051210
:1008F800F31D7F2C802C822C8516832C85120800F2
:10090800902C7A080139F300F40173088312031359
:10091800A0007408A100A02C7A08F3000310730C3F
:10092800F400F5017508003A03199B2CA02C7408F3
:100938004D3A0319852CA02C0800F50083120313E7
:10094800051075080A128A1162240A128A11831284
:1009580003138514C730F400B12CF40BB02CB42C5D
:10096800B52C8312031385100800831203138C1E01
:10097800BE2CBF2CC72C0A128A11E3240A128A1132
:10098800F0007008FA0072088A00710E8300FE0EEB
:100998007E0E090000300A128A11A1240A128A1157
:1009A80001300A128A11A1240A128A11080064006F
:1009B8008001840A0406031900340406DC2C83121F
:0609C80003131A080800E9
:08400000FF3FFF3FFF3FFF3FC0
:04400E00D420FF3E7D
:00000001FF
