:060000000A128A110E280D
:10000800FE00030EF3000408F4000A08F5000A12C3
:100018008A11062E0A128A1111280A128A116426D8
:100028000A128A11EA000A128A1165260A128A112E
:10003800EB000A128A1166260A128A11EC000A12CB
:100048008A1167260A128A11ED000A128A11682697
:100058000A128A11EE000A128A1169260A128A11F6
:10006800EF008313203084004A300A128A115C267C
:100078000A128A11F70183010A128A11EF2A8312E0
:100088000313E8005830DE005E08E100002A25303E
:1000980069060319502851285D286908DE00680898
:1000A80084005E08831380000130DE005E08E807E4
:1000B800002AE601E701E501662865150130DE0042
:1000C8005E08D707570884000A128A113A250A12CF
:1000D8008A11DE00DF015F08003A031974287928C5
:1000E8005E08303A031961287928570884000A12F3
:1000F8008A113A250A128A110A128A113B260A1213
:100108008A11031C88288928C92883120313E60149
:10011800E7010A3083120313CA000030CB006708D6
:10012800CD006608CC000A128A1173250A128A11BA
:10013800831203134B08E7004A08E60057088400B7
:100148000A128A113A250A128A11D03EDE00FF30BF
:1001580003180030DF005E08E6070318E70A5F08A7
:10016800E7070130DE005E08D707570884000A1247
:100178008A113A250A128A110A128A113B260A1292
:100188008A110318C828C9288D280130831203133F
:10019800D707FF30570784000A128A113A250A1236
:1001A8008A11E900DE00DF015F08003A0319DD2843
:1001B800002A5E08003A0319122A643A0319E8284B
:1001C8000D3A0319E828002A6108840083130008FF
:1001D800E300840A0008E4000230DE005E08E1075C
:1001E800E41FF728F82801290330DE005E08E5043B
:1001F800E309E409E30A0319E40AE901E90A6908D9
:10020800DE005E07013E84000A128A113A250A12AE
:100218008A11DF000A128A113A250A128A11E000AF
:1002280060086402031D1A295F08630203181D2968
:100238001E291F2929290130DE005E08E90705303B
:100248006906031D28292929032966086704031953
:100258002E292F293B296508033903193429352903
:100268003B29FF30E6070318E70AFF30E70767086E
:10027800803A803C031D4229660869020318452913
:1002880046295229831203136908DE00DF015E083C
:10029800E6025F08031CE703E702562983120313EB
:1002A800E601E701651D59295A2989296508033995
:1002B80003195F2960296B292D30DE006808840046
:1002C8005E08831380000130DE005E08E8076608D8
:1002D8006704031970297129B7293030DE006808CE
:1002E80084005E08831380000130DE005E08E807A2
:1002F800FF30E6070318E70AFF30E70766086704D8
:10030800031D872988297129B729660867040319F5
:100318008E298F29A6292030DE00680884005E080F
:10032800831380000130DE005E08E807FF30E6072F
:100338000318E70AFF30E70766086704031DA529C5
:10034800A6298F29650803390319AB29AC29B729D0
:100358002D30DE00680884005E08831380000130B9
:10036800DE005E08E8076908DE005E08E200F7299B
:100378000A30D1000030D2006208DE005E07013E7C
:1003880084000A128A113A250A128A11CA000A122E
:100398008A113A250A128A11CB006408CD00630835
:1003A800CC000A128A11FC230A128A118312031341
:1003B8004B08D4004A08D3000A128A11FE240A12F4
:1003C8008A11831203135108303EDF005F08E900E9
:1003D8006908DE00680884005E0883138000013025
:1003E800DE005E08E807FF30DE005E08E207620A0A
:1003F800031DFF29002ABC290130D707FF30570702
:1004080084000A128A113A250A128A11DE005E084F
:10041800E9006908031D112A122A4B28680884007C
:100428008313800108008316031318158316031716
:100438008715831603139A01831203135708DB00E9
:100448005808DC005908DD005A08DE0002300310A5
:10045800DB0DDC0DDD0DDE0DFF3E031D2B2A5E08D6
:10046800CD005D08CC005C08CB005B08CA005708CB
:10047800DF005808E0005908E1005A08E20002309D
:100488000310DF0DE00DE10DE20DFF3E031D442AD0
:100498004030E3004230E4000F30E5000030E60071
:1004A8005F08E3026008031C600F5B2A5C2AE40211
:1004B8006108031C610F612A622AE5026208031CB5
:1004C800620F672A682AE6026608D1006508D0002C
:1004D8006408CF006308CE000A128A1187220A1224
:1004E8008A11831203134A088316031399001812FA
:1004F800831203139817831603138C16831203139E
:10050800181318160800003083120313D5000030A2
:10051800D4000030D3000030D2004D084C044B0406
:100528004A040319982A992AE62AD601D60AA92A3A
:100538000130F6000310CA0DCB0DCC0DCD0DF60B16
:100548009E2A0130F6007608D607CD1FAC2AAD2AC0
:100558009C2A0130F6000310D20DD30DD40DD50D11
:10056800F60BAF2A4D085102031DC42A4C0850024D
:10057800031DC42A4B084F02031DC42A4A084E0211
:10058800031CC72AC82AD72A4A08CE024B08031CCC
:100598004B0FCF024C08031C4C0FD0024D08031C14
:1005A8004D0FD102521401300310CD0CCC0CCB0CE2
:1005B800CA0CFF3E031DD82A0130D602031DE52AC6
:1005C800E62AAD2A5508CD005408CC005308CB00C4
:1005D8005208CA0008000A128A119A250A128A11BA
:1005E8000A128A114F260A128A110B308316031336
:1005F800A000200883120313D7006D08D9006C08E7
:10060800D8006B08DB006A08DA005F30DC000030D5
:10061800DD0036300A128A1143200A128A1121306D
:1006280083160313A000200883120313D7002108A0
:10063800D9002008D8006F08DB006E08DA002230E5
:100648000A128A1143200A128A1183120313CC0159
:10065800CC0A01300A128A114D230A128A11363047
:100668000A128A11BF250A128A1183120313CC01B8
:10067800CC0A02300A128A114D230A128A1122303A
:100688000A128A11BF250A128A11F92A0A128A1136
:100698000E2883120313CF004F03031D542B552B31
:1006A8007A2B4C087F3ECD004D08D2005208CD0071
:1006B80004300310CD0CFF3E031D5D2B4D08CE000A
:1006C8004E08D00052080F39CD004D08D10050080F
:1006D8000A128A1122260A128A1183120313510858
:1006E8000A128A1122260A128A11A42B02304F06F6
:1006F800031D7F2B802BA42B4C08BF3ECD004D083B
:10070800D2005208CD0004300310CD0CFF3E031D6B
:10071800882B4D08CE004E08D00052080F39CD0066
:100728004D08D10050080A128A1122260A128A118D
:100738008312031351080A128A1122260A128A11F7
:10074800080000300A128A11E4250A128A110730BB
:1007580083120313CD007C30CC00CC0BB12BCD0B16
:10076800B12B000003300A128A1122260A128A11BC
:10077800F93083120313CC00C12BCC0BC02BC42B34
:1007880003300A128A1122260A128A11CB2B03304F
:100798000A128A1122260A128A1102300A128A11B2
:1007A80022260A128A1102300A128A1122260A12F5
:1007B8008A1108300A128A1122260A128A11003078
:1007C8000A128A1122260A128A110C300A128A1178
:1007D80022260A128A1100300A128A1122260A12C7
:1007E8008A1106300A128A1122260A128A11080072
:1007F80083120313CE01CF014A084B040319052CB9
:10080800062C3D2CD001D00A142C01300310CA0D3F
:10081800CB0DFF3E031D0A2C0130F6007608D007E9
:10082800CB1F172C182C092C01300310CE0DCF0D1F
:10083800FF3E031D192C4B084D02031D252C4A08A9
:100848004C02031C282C292C302C4A08CC024B08BB
:10085800031CCD03CD024E1401300310CB0CCA0C7F
:10086800FF3E031D312C0130D002031D3C2C3D2CD2
:10087800182C4F08CB004E08CA0008006F2C7708C8
:100888001F39F000F101700883120313A0007108EA
:10089800A100832C77081F39F000F101700883123A
:1008A8000313EE007108EF00832C77081F39F0005E
:1008B800F101700883120313EC007108ED00832C1A
:1008C80077081F39F000F101700883120313EA005A
:1008D8007108EB00832C7708E039F000F10171080A
:1008E800003A0319782C642C7008803A0319432CB9
:1008F800203A03194E2C403A0319592C642C08004D
:10090800F600A72C831603130F088F3940388F0081
:10091800BF2C831603130F088F3950388F00BF2C54
:10092800831603130F088F3960388F00BF2C70307F
:10093800831603138F04BF2C831603130F088F39F4
:1009480060388F00BF2C760883120313CA00CB01CE
:100958004B08003A0319B12CA02C4A08013A031994
:10096800862C033A03198D2C063A0319942C0C3A59
:1009780003199B2CA02C0F14080083120313CD001D
:100988004D080F39CA004A08CB004D08F039CA0093
:100998004A08CC0005144C08CA0004300310CA0CDD
:1009A800FF3E031DD22C4A080A128A11E4250A12B6
:1009B8008A11831203138514023083120313CA00A9
:1009C800CA0BE42C00008312031385104B080A128B
:1009D8008A11E4250A128A1183120313851402303E
:1009E80083120313CA00CA0BF72C000083120313E7
:1009F8008510080083120313510852040319052DAA
:100A0800062D352DD601D60A142D01300310D10D2F
:100A1800D20DFF3E031D0A2D0130D5005508D6071B
:100A2800D21F172D182D092D52085402031D1E2DF3
:100A380051085302031C212D222D282D5108D302C1
:100A48005208031CD403D40201300310D20CD10C79
:100A5800FF3E031D292D0130D602031D342D352DEF
:100A6800182D5408D2005308D100080005308A0018
:100A78000408840A82070034013400340A3400343C
:100A880064340034E83403341034273425343034E3
:100A9800323464343A3425343034323464342034D3
:100AA8002034203420344C3475347A343A342034A9
:100AB80025343234643400344D346F3476343A3467
:100AC80020342534643420342034543465346D346F
:100AD80070343A3420342534323464340034831288
:100AE8000313CE01CF014A1C7A2D7B2D812D4C0892
:100AF800CE070318CF0A4D08CF0701300310CC0DDD
:100B0800CD0DFF3E031D822D01300310CB0CCA0C06
:100B1800FF3E031D892D4A084B04031D942D952D76
:100B2800772D4F08CB004E08CA00080001300A1282
:100B38008A1184240A128A118316031788018901ED
:100B480083160313850186010A128A11A5230A1246
:100B58008A11003083120313DA000030D9002530DF
:100B6800D8008030D7000A128A1117220A128A1177
:100B78008B170B17080083120313D100CF01D00184
:100B8800D82D4F085107CE004E08840000080A12DD
:100B98008A11C1240A128A11013083120313CF0764
:100BA8000318D00A0030D0074F085107CE004E086E
:100BB800840083130008031DE22DE32DC52D0800D2
:100BC800F600761CE82DE92DED2D8312031305158B
:100BD800F02D831203130511F61CF32DF42DF62DB9
:100BE8008515F72D8511761DFA2DFB2DFD2D051682
:100BF800FE2D0512F61D012E022E042E8516052E39
:100C080085120800831203138C1E0B2E0C2E192E2E
:100C18000A128A116A260A128A11F2007208F7006B
:100C28000A128A1142240A128A1175088A00740865
:100C38008400730E8300FE0E7E0E090083120313D8
:100C4800CB0005104B080A128A11E4250A128A11F2
:100C5800831203138514C73083120313CA00342E7A
:100C6800CA0B332E372E8312031385100800831204
:100C78000313CB00CA013A304B020318442E452E09
:100C88004D2E30304B02031C4A2E4B2E4D2ECA01DE
:100C9800CA0A4A0C080000300A128A1122260A12CF
:100CA8008A1101300A128A1122260A128A110800B2
:100CB80064008001840A04060319003404065D2ECA
:100CC8000F3400340F340034183400348312031303
:040CD8001A080800EE
:08400000FF3FFF3FFF3FFF3FC0
:04400E00D420FF3E7D
:00000001FF
