:060000000A128A110E280D
:10000800FE00030EF3000408F4000A08F5000A12C3
:100018008A11312E0A128A1111280A128A118F2682
:100028000A128A11D9000A128A1190260A128A1114
:10003800DA000A128A1191260A128A11DB000A12C2
:100048008A1192260A128A11DC000A128A11932652
:100058000A128A11DD000A128A1194260A128A11DC
:10006800DE008313A0308400B4300A128A11872678
:100078000A128A114130840059300A128A118726DF
:100088000A128A11F70183010A128A111F2A8312A0
:100098000313BE002E30B4003408B700082A2530F8
:1000A8003F0603195828592865283F08B4003E0818
:1000B80084003408831380000130B4003408BE077C
:1000C800082ABC01BD01BB016E283B150130B400F4
:1000D8003408AD072D0884000A128A1163250A1214
:1000E8008A11B400B5013508003A03197C28812823
:1000F8003408303A0319692881282D0884000A1227
:100108008A1163250A128A110A128A1166260A12AE
:100118008A11031C90289128D12883120313BC014B
:10012800BD010A3083120313A0000030A1003D086E
:10013800A3003C08A2000A128A119E250A128A11FD
:10014800831203132108BD002008BC002D08840079
:100158000A128A1163250A128A11D03EB400FF30B0
:1001680003180030B5003408BC070318BD0A350869
:10017800BD070130B4003408AD072D0884000A1209
:100188008A1163250A128A110A128A1166260A122E
:100198008A110318D028D128952801308312031317
:1001A800AD07FF302D0784000A128A1163250A1251
:1001B8008A11BF00B400B5013508003A0319E528D3
:1001C800082A3408003A03191A2A643A0319F0284D
:1001D8000D3A0319F028082A370884008313000809
:1001E800B900840A0008BA000230B4003408B7071E
:1001F800BA1FFF28002909290330B4003408BB04BA
:10020800B909BA09B90A0319BA0ABF01BF0A3F08EE
:10021800B4003407013E84000A128A1163250A12C9
:100228008A11B5000A128A1163250A128A11B600CA
:1002380036083A02031D22293508390203182529F0
:100248002629272931290130B4003408BF07053091
:100258003F06031D302931290B293C083D040319A9
:100268003629372943293B08033903193C293D29F5
:100278004329FF30BC070318BD0AFF30BD073D08FE
:10028800803A803C031D4A293C083F0203184D2947
:100298004E295A29831203133F08B400B5013408C4
:1002A800BC023508031CBD03BD025E29831203137B
:1002B800BC01BD013B1D6129622991293B08033915
:1002C80003196729682973292D30B4003E08840072
:1002D8003408831380000130B4003408BE073C089A
:1002E8003D04031978297929BF293030B4003E0824
:1002F80084003408831380000130B4003408BE073A
:10030800FF30BC070318BD0AFF30BD073C083D0499
:10031800031D8F2990297929BF293C083D04031919
:1003280096299729AE292030B4003E088400340865
:10033800831380000130B4003408BE07FF30BC07C7
:100348000318BD0AFF30BD073C083D04031DAD2955
:10035800AE2997293B0803390319B329B429BF29C2
:100368002D30B4003E088400340883138000013027
:10037800B4003408BE073F08B4003408B800FF29A9
:100388000A30A7000030A8003808B4003407013E3E
:1003980084000A128A1163250A128A11A0000A121F
:1003A8008A1163250A128A11A1003A08A3003908A4
:1003B800A2000A128A1167240A128A1183120313EF
:1003C8002108AA002008A9000A128A1127250A1262
:1003D8008A11831203132708303EB5003508BF0081
:1003E8003F08B4003E0884003408831380000130BD
:1003F800B4003408BE07FF30B4003408B807380A20
:10040800031D072A082AC4290130AD07FF302D072C
:1004180084000A128A1163250A128A11B40034086A
:10042800BF003F08031D192A1A2A53283E088400D2
:100438008313800108000A128A11C5250A128A113D
:100448000A128A117A260A128A110B3083120313B0
:10045800C0004008AD005C08AF005B08AE005A0859
:10046800B1005908B0004208B3004108B200453055
:100478000A128A114B200A128A112230831203139E
:10048800C0004008AD004408AF004308AE005E0855
:10049800B1005D08B000A0300A128A114B200A1280
:1004A8008A1183120313A201A20A01300A128A11C7
:1004B80068230A128A1145300A128A11EA250A129B
:1004C8008A1183120313A201A20A02300A128A11A6
:1004D80068230A128A11A0300A128A11EA250A1220
:1004E8008A11831203134208803AFF0080307F028A
:1004F800031D802A073041020318832A842A892A87
:10050800FF30831203138600292A831203138601FE
:10051800292A0A128A110E2883160313181583161E
:1005280003178715831603139A01831203132D08E3
:10053800B1002E08B2002F08B3003008B400023012
:100548000310B10DB20DB30DB40DFF3E031DA42A67
:100558003408A3003308A2003208A1003108A00023
:100568002D08B5002E08B6002F08B7003008B800CF
:1005780002300310B50DB60DB70DB80DFF3E031DC3
:10058800BD2A4030B9004230BA000F30BB000030FD
:10059800BC003508B9023608031C360FD42AD52A00
:1005A800BA023708031C370FDA2ADB2ABB023808DD
:1005B800031C380FE02AE12ABC023C08A7003B08CC
:1005C800A6003A08A5003908A4000A128A110023D7
:1005D8000A128A1183120313200883160313990041
:1005E8001812831203139817831603138C16831299
:1005F8000313181318160800003083120313AB00F6
:100608000030AA000030A9000030A8002308220406
:10061800210420040319112B122B5F2BAC01AC0A07
:10062800222B0130F6000310A00DA10DA20DA30D81
:10063800F60B172B0130F6007608AC07A31F252B05
:10064800262B152B0130F6000310A80DA90DAA0DB5
:10065800AB0DF60B282B23082702031D3D2B220880
:100668002602031D3D2B21082502031D3D2B2008D2
:100678002402031C402B412B502B2008A4022108E4
:10068800031C210FA5022208031C220FA60223081F
:10069800031C230FA702281401300310A30CA20C7B
:1006A800A10CA00CFF3E031D512B0130AC02031D11
:1006B8005E2B5F2B262B2B08A3002A08A2002908F3
:1006C800A1002808A000080083120313A500250331
:1006D800031D6F2B702B952B22087F3EA300230848
:1006E800A8002808A30004300310A30CFF3E031D34
:1006F800782B2308A4002408A60028080F39A30093
:100708002308A70026080A128A114D260A128A1100
:100718008312031327080A128A114D260A128A1116
:10072800BF2B02302506031D9A2B9B2BBF2B2208BB
:10073800BF3EA3002308A8002808A3000430031024
:10074800A30CFF3E031DA32B2308A4002408A60026
:1007580028080F39A3002308A70026080A128A11BF
:100768004D260A128A118312031327080A128A11C6
:100778004D260A128A11080000300A128A110F2623
:100788000A128A11073083120313A3007C30A200D7
:10079800A20BCC2BA30BCC2B000003300A128A111E
:1007A8004D260A128A11F93083120313A200DC2B9A
:1007B800A20BDB2BDF2B03300A128A114D260A12FB
:1007C8008A11E62B03300A128A114D260A128A1161
:1007D80002300A128A114D260A128A1102300A12B0
:1007E8008A114D260A128A1108300A128A114D26DA
:1007F8000A128A1100300A128A114D260A128A1129
:100808000C300A128A114D260A128A1100300A1277
:100818008A114D260A128A1106300A128A114D26AB
:100828000A128A1108004F2C77081F39F000F101CD
:10083800700883120313C3007108C400662C77087C
:100848001F39F000F101700883120313DD007108ED
:10085800DE00662C77081F39F000F101700883125A
:100868000313C1007108C200662C77081F39F00015
:10087800F101700883120313DB007108DC00662C99
:1008880077081F39F000F101700883120313D900AB
:100898007108DA00662C7708E039F000F101710878
:1008A800003A0319582C442C7008803A0319182C64
:1008B800203A0319232C603A03192E2C203A0319E5
:1008C800392C442C080083120313A401A501200825
:1008D80021040319702C712CA82CA601A60A7F2CC0
:1008E80001300310A00DA10DFF3E031D752C013032
:1008F800F6007608A607A11F822C832C742C0130E1
:100908000310A40DA50DFF3E031D842C210823020E
:10091800031D902C20082202031C932C942C9B2C42
:100928002008A2022108031CA303A30224140130F7
:100938000310A10CA00CFF3E031D9C2C0130A60245
:10094800031DA72CA82C832C2508A1002408A0008F
:100958000800F600D02C831603130F088F3940388F
:100968008F00E82C831603130F088F3950388F0037
:10097800E82C831603130F088F3960388F00E82C92
:100988007030831603138F04E82C831603130F08A3
:100998008F3960388F00E82C760883120313A00083
:1009A800A1012108003A0319DA2CC92C2008013AC0
:1009B8000319AF2C033A0319B62C063A0319BD2CB8
:1009C8000C3A0319C42CC92C0F1408008312031302
:1009D800A30023080F39A0002008A1002308F0393C
:1009E800A0002008A20005142208A000043003106B
:1009F800A00CFF3E031DFB2C20080A128A110F26AB
:100A08000A128A1183120313851402308312031306
:100A1800A000A00B0D2D00008312031385102108E0
:100A28000A128A110F260A128A11831203138514D7
:100A3800023083120313A000A00B202D00008312A4
:100A480003138510080083120313270828040319C9
:100A58002E2D2F2D5E2DAC01AC0A3D2D013003103B
:100A6800A70DA80DFF3E031D332D0130AB002B0849
:100A7800AC07A81F402D412D322D28082A02031D3E
:100A8800472D27082902031C4A2D4B2D512D2708D5
:100A9800A9022808031CAA03AA0201300310A80C03
:100AA800A70CFF3E031D522D0130AC02031D5D2D26
:100AB8005E2D412D2A08A8002908A7000800053046
:100AC8008A000408840A82070034013400340A3496
:100AD800003464340034E8340334103427342534C3
:100AE8003034323464343A34253430343234643473
:100AF80020342034203420344C3475347A343A3459
:100B08002034253430343234643400344D346F3476
:100B180076343A3420342534643420342034543440
:100B280065346D3470343A342034253430343234FA
:100B38006434003483120313A401A501201CA52DDD
:100B4800A62DAC2D2208A4070318A50A2308A5077B
:100B580001300310A20DA30DFF3E031DAD2D013082
:100B68000310A10CA00CFF3E031DB42D2008210486
:100B7800031DBF2DC02DA22D2508A1002408A0000B
:100B8800080001300A128A11AD240A128A1183164C
:100B980003178801890183160313850186010A1248
:100BA8008A11C0230A128A11003083120313B0007D
:100BB8000030AF002530AE008030AD000A128A1137
:100BC80090220A128A118B170B170800831203133D
:100BD800A700A501A601032E25082707A4002408BD
:100BE800840000080A128A11EA240A128A110130C4
:100BF80083120313A5070318A60A0030A6072508C1
:100C08002707A4002408840083130008031D0D2E61
:100C18000E2EF02D0800F600761C132E142E182E1A
:100C28008312031305151B2E831203130511F61CDB
:100C38001E2E1F2E212E8515222E8511761D252E5E
:100C4800262E282E0516292E0512F61D2C2E2D2EA1
:100C58002F2E8516302E85120800831203138C1E42
:100C6800362E372E442E0A128A1195260A128A1118
:100C7800F2007208F7000A128A1117240A128A1160
:100C880075088A0074088400730E8300FE0E7E0EB9
:100C9800090083120313A100051021080A128A1102
:100CA8000F260A128A11831203138514C730831280
:100CB8000313A0005F2EA00B5E2E622E8312031377
:100CC8008510080083120313A100A0013A30210205
:100CD80003186F2E702E782E30302102031C752ECB
:100CE800762E782EA001A00A200C080000300A12E7
:100CF8008A114D260A128A1101300A128A114D26CC
:100D08000A128A11080064008001840A0406031983
:100D180000340406882E0F3400340F34003418349D
:0A0D28000034831203131A080800B8
:08400000FF3FFF3FFF3FFF3FC0
:04400E00D420FF3E7D
:00000001FF
