:060000000A128A110C280F
:10000800FE00030EF1000A08F2000A128A11952D6B
:100018000A128A110F280A128A11D5250A128A1182
:10002800E9000A128A11D6250A128A11EA008313F6
:10003800203084004A300A128A11C9250A128A110E
:10004800FA0183010A128A11892A83120313E40030
:100058005230DC005C08DF009A2925306706031956
:100068003628372843286708DC00640884005C08C1
:10007800831380000130DC005C08E4079A29E5015D
:10008800E601E101510884000A128A1154240A1277
:100098008A110A128A11AA250A128A11031C5528E4
:1000A8005628962883120313E501E6010A30F30067
:1000B8000030F400831203136608F6006508F500A3
:1000C8000A128A11EC240A128A1174088312031383
:1000D800E6007308E500510884000A128A115424C6
:1000E8000A128A11D03EDC00FF3003180030DD0010
:1000F8005C08E5070318E60A5D08E6070130DC003E
:100108005C08D107510884000A128A1154240A1283
:100118008A110A128A11AA250A128A110318952827
:1001280096285A28013083120313D107FF3051074C
:1001380084000A128A1154240A128A11E700DC008A
:10014800DD015D08003A0319AA289A295C08003ADB
:100158000319AC29643A0319B5280D3A0319B528CF
:100168009A295F08840083130008E200840A0008C3
:10017800E3000230DC005C08DF07E31FC428C52861
:10018800CE280330DC005C08E104E209E309E20A56
:100198000319E30AE701E70A6708DC005C07013E88
:1001A80084000A128A1154240A128A11DD000A12E4
:1001B8008A1154240A128A11DE005E086302031DA4
:1001C800E7285D0862020318EA28EB28EC28F628DD
:1001D8000130DC005C08E70705306706031DF528D9
:1001E800F628D028650866040319FB28FC28082986
:1001F800610803390319012902290829FF30E50795
:100208000318E60AFF30E6076608803A803C031DBB
:100218000F29650867020318122913291F29831259
:1002280003136708DC00DD015C08E5025D08031CB8
:10023800E603E602232983120313E501E6016508B4
:10024800660403192829292940292030DC0064087C
:1002580084005C08831380000130DC005C08E4073C
:10026800FF30E5070318E60AFF30E607650866046D
:10027800031D3F2940292929610803390319452904
:10028800462951292D30DC00640884005C0883135A
:1002980080000130DC005C08E4076708DC005C08CB
:1002A800E00091290A30CD000030CE006008DC0063
:1002B8005C07013E84000A128A1154240A128A112A
:1002C800F3000A128A1154240A128A11F4006308EE
:1002D800F6006208F5000A128A1197230A128A1199
:1002E800740883120313D0007308CF000A128A110E
:1002F800DD230A128A11831203134D08303EDD00F4
:100308005D08E7006708DC00640884005C08831364
:1003180080000130DC005C08E407FF30DC005C088A
:10032800E007600A031D99299A2956290130D10747
:10033800FF30510784000A128A1154240A128A11C4
:10034800DC005C08E7006708031DAB29AC293128ED
:1003580064088400831380010800831603131815AA
:10036800831603178715831603139A018312031341
:100378005208D6005308D7005408D8005508D900A9
:1003880002300310D60DD70DD80DD90DFF3E031D31
:10039800C5295908CD005808CC005708CB00560885
:1003A800CA005208DA005308DB005408DC0055087C
:1003B800DD0002300310DA0DDB0DDC0DDD0DFF3E34
:1003C800031DDE294030DE004230DF000F30E00040
:1003D8000030E1005A08DE025B08031C5B0FF529B8
:1003E800F629DF025C08031C5C0FFB29FC29E002EC
:1003F8005D08031C5D0F012A022AE1026108D10091
:100408006008D0005F08CF005E08CE000A128A118B
:1004180021220A128A11831203134A08831603132E
:1004280099001812831203139817831603138C1656
:10043800831203131813181608000030F700003051
:10044800F6000030F5000030F400831203134D0865
:100458004C044B044A040319322A332A802AF8012F
:10046800F80A432A0130F3000310CA0DCB0DCC0D56
:10047800CD0DF30B382A0130F3007308F807CD1FB0
:10048800462A472A362A0130F3000310F40DF50DE9
:10049800F60DF70DF30B492A4D085102031D5E2A8C
:1004A8004C085002031D5E2A4B084F02031D5E2AAA
:1004B8004A084E02031C612A622A712A4A08CE029F
:1004C8004B08031C4B0FCF024C08031C4C0FD002E7
:1004D8004D08031C4D0FD102741401300310CD0CCC
:1004E800CC0CCB0CCA0CFF3E031D722A0130F8025B
:1004F800031D7F2A802A472A7708CD007608CC007A
:100508007508CB007408CA0008000A128A11112560
:100518000A128A110A128A11BC250A128A110A12B1
:100528008A11C4240A128A110B3083120313E800BB
:100538006808D1000230D2000030D3000330D40064
:100548000030D5000430D6000030D7000230D80083
:100558000030D9005F30DA000030DB0036300A1294
:100568008A1129200A128A11213083120313E80004
:100578006808D1002108D3002008D2006A08D500F5
:100588006908D40022300A128A1129200A128A1115
:10059800F601F60A01300A128A11EC220A128A11AF
:1005A80036300A128A1136250A128A11F601F60A1D
:1005B80002300A128A11EC220A128A1122300A1217
:1005C8008A1136250A128A11932A0A128A110C28CE
:1005D80083120313CA004A03031DF32AF42A192BB2
:1005E80076087F3EF7007708CD004D08F700043005
:1005F8000310F70CFF3E031DFC2A7708F800780863
:10060800CB004D080F39F7007708CC004B080A12C9
:100618008A117D250A128A11831203134C080A12C3
:100628008A117D250A128A11432B02304A06031DBE
:100638001E2B1F2B432B7608BF3EF7007708CD00F3
:100648004D08F70004300310F70CFF3E031D272B5D
:100658007708F8007808CB004D080F39F7007708BD
:10066800CC004B080A128A117D250A128A118312BE
:1006780003134C080A128A117D250A128A110800F0
:1006880000300A128A115B250A128A110730F70016
:100698007D30F600F60B4E2BF70B4E2B03300A126B
:1006A8008A117D250A128A11F930F6005B2BF60BA8
:1006B8005A2B5E2B5F2B03300A128A117D250A12F2
:1006C8008A11662B03300A128A117D250A128A11B3
:1006D80002300A128A117D250A128A1102300A1282
:1006E8008A117D250A128A1108300A128A117D257D
:1006F8000A128A1100300A128A117D250A128A11FB
:100708000C300A128A117D250A128A1100300A1249
:100718008A117D250A128A1106300A128A117D254E
:100728000A128A11080083120313CB01CC01730843
:1007380074040319A02BA12BD82BCA01CA0AAF2B0A
:1007480001300310F30DF40DFF3E031DA52B0130FE
:10075800F7007708CA07F41FB22BB32BA42B01307C
:100768000310CB0DCC0DFF3E031DB42B740876028D
:10077800031DC02B73087502031CC32BC42BCB2B82
:100788007308F5027408031CF603F6024B140130D3
:100798000310F40CF30CFF3E031DCC2B0130CA02EE
:1007A800031DD72BD82BB32B4C08F4004B08F300B0
:1007B8000800831203134D084E040319E42BE52B9C
:1007C800142CF901F90AF32B01300310CD0DCE0DCD
:1007D800FF3E031DE92B0130F8007808F907CE1F0A
:1007E800F62BF72BE82B4E085002031DFD2B4D0866
:1007F8004F02031C002C012C072C4D08CF024E0879
:10080800031CD003D00201300310CE0CCD0CFF3EE8
:10081800031D082C0130F902031D132C142CF72B8F
:100828005008CE004F08CD000800F5003C2C831678
:1008380003130F088F3940388F00522C8316031387
:100848000F088F3950388F00522C831603130F0866
:100858008F3960388F00522C7030831603138F0441
:10086800522C831603130F088F3960388F00522CCF
:100878007508F300F4017408003A0319442C352C68
:100888007308013A03191B2C033A0319222C063A60
:100898000319292C0C3A0319302C352C0F14080095
:1008A80004308A000408840A8207003401340034C2
:1008B8000A34003464340034E83403341034273400
:1008C80025346434253464343A3425346434253486
:1008D800643420342034203420344C3475347A3451
:1008E8003A34203425343234643400344D346F348F
:1008F80076343A3420342534643420342034543463
:1009080065346D3470343A342034253432346434E8
:100918000034F70077080F39F4007408F5007708F9
:10092800F039F4007408F6008312031305147608EE
:10093800F40004300310F40CFF3E031D9E2C7408D1
:100948000A128A115B250A128A118312031385146D
:100958000330F400F40BAE2C8312031385107508D2
:100968000A128A115B250A128A118312031385144D
:100978000330F400F40BBE2C831203138510080017
:100988007A08F30001300310F30CFF3E031DC72C57
:100998004D307306031DD12CD22CDD2C7A08013979
:1009A800F300F401730883120313A0007408A10074
:1009B800EB2CFA1FE02CE12CEB2C7A087F39F300A2
:1009C800F401730883120313E9007408EA000800AD
:1009D800F701F801731CF12CF22CF82C7508F707B5
:1009E8000318F80A7608F80701300310F50DF60D1C
:1009F800FF3E031DF92C01300310F40CF30CFF3EED
:100A0800031D002D73087404031D0B2D0C2DEE2CF3
:100A18007808F4007708F300080001300A128A11F8
:100A280019240A128A11831603178801890183166B
:100A38000313850186010A128A1144230A128A11B6
:100A4800003083120313D5000030D4002530D300C2
:100A58008030D2000A128A11B1210A128A118B172A
:100A68000B17080083120313CC00CA01CB014F2DCA
:100A78004A084C07F8007808840000080A128A110E
:100A88008D240A128A11013083120313CA0703182E
:100A9800CB0A0030CB074A084C07F80078088400D6
:100AA80083130008031D592D5A2D3C2D0800F3000F
:100AB800731C5F2D602D642D831203130515672D9C
:100AC800831203130511F31C6A2D6B2D6D2D8515EB
:100AD8006E2D8511731D712D722D742D0516752DB2
:100AE8000512F31D782D792D7B2D85167C2D851209
:100AF8000800F50083120313051075080A128A11FD
:100B08005B250A128A11831203138514C730F40077
:100B18008D2DF40B8C2D902D912D831203138510A0
:100B28000800831203138C1E9A2D9B2DA32D0A12E5
:100B38008A11D1250A128A11F0007008FA00720889
:100B48008A00710E8300FE0E7E0E0900F400F30188
:100B58003A3074020318B12DB22DBA2D3030740218
:100B6800031CB72DB82DBA2DF301F30A730C080036
:100B780000300A128A117D250A128A1101300A12E0
:100B88008A117D250A128A11080064008001840AEE
:100B98000406031900340406CA2D831203131A0825
:060BA800080018340034BF
:08400000FF3FFF3FFF3FFF3FC0
:04400E00D420FF3E7D
:00000001FF
