:060000000A128A110E280D
:10000800FE00030EF4000408F5000A08F6000A12C0
:100018008A112B2A0A128A1111280A128A113B27DF
:100028000A128A11DA000A128A113C270A128A1166
:10003800DB000A128A113D270A128A11DC000A1213
:100048008A113E270A128A11DD000A128A113F27F7
:100058000A128A11DE000A128A1140270A128A112E
:10006800DF000A128A114B270A128A11F7000A12B6
:100078008A114C270A128A11F8008313A0308400D1
:10008800B4300A128A112C270A128A1142308400CD
:100098005A300A128A112C270A128A11F90183018F
:1000A8000A128A119F2A83120313BF002F30B5004A
:1000B8003508B800142A2530400603196428652835
:1000C80071284008B5003F08840035088313800074
:1000D8000130B5003508BF07142ABD01BE01BC01B7
:1000E8007A283C150130B5003508AE072E08840083
:1000F8000A128A1124260A128A11B500B601360896
:10010800003A031988288D283508303A03197528CC
:100118008D282E0884000A128A1124260A128A11B0
:100128000A128A1102270A128A11031C9C289D2888
:10013800DD2883120313BD01BE010A3083120313A5
:10014800A0000030A1003E08A3003D08A2000A124A
:100158008A115F260A128A11831203132108BE002E
:100168002008BD002E0884000A128A1124260A12CB
:100178008A11D03EB500FF3003180030B6003508AC
:10018800BD070318BE0A3608BE070130B50035089A
:10019800AE072E0884000A128A1124260A128A1130
:1001A8000A128A1102270A128A110318DC28DD288C
:1001B800A128013083120313AE07FF302E078400F5
:1001C8000A128A1124260A128A11C000B500B60143
:1001D8003608003A0319F128142A3508003A031999
:1001E800262A643A0319FC280D3A0319FC28142A14
:1001F8003808840083130008BA00840A0008BB008A
:100208000230B5003508B807BB1F0B290C29152982
:100218000330B5003508BC04BA09BB09BA0A03198A
:10022800BB0AC001C00A4008B5003507013E84007A
:100238000A128A1124260A128A11B6000A128A1191
:1002480024260A128A11B70037083B02031D2E29FB
:1002580036083A0203183129322933293D29013059
:10026800B5003508C00705304006031D3C293D2967
:1002780017293D083E040319422943294F293C0800
:1002880003390319482949294F29FF30BD070318A5
:10029800BE0AFF30BE073E08803A803C031D56293F
:1002A8003D084002031859295A2966298312031365
:1002B8004008B500B6013508BD023608031CBE0368
:1002C800BE026A2983120313BD01BE013C1D6D29BC
:1002D8006E299D293C0803390319732974297F293C
:1002E8002D30B5003F0884003508831380000130A5
:1002F800B5003508BF073D083E0403198429852940
:10030800CB293030B5003F088400350883138000BE
:100318000130B5003508BF07FF30BD070318BE0A16
:10032800FF30BE073D083E04031D9B299C298529F3
:10033800CB293D083E040319A229A329BA29203054
:10034800B5003F0884003508831380000130B500EC
:100358003508BF07FF30BD070318BE0AFF30BE07C8
:100368003D083E04031DB929BA29A3293C080339CD
:100378000319BF29C029CB292D30B5003F088400B7
:100388003508831380000130B5003508BF074008E1
:10039800B5003508B9000B2A0A30A8000030A900BA
:1003A8003908B5003507013E84000A128A1124264F
:1003B8000A128A11A0000A128A1124260A128A1126
:1003C800A1003B08A3003A08A2000A128A11E724F8
:1003D8000A128A11831203132108AB002008AA000D
:1003E8000A128A11E8250A128A11831203132808AF
:1003F800303EB6003608C0004008B5003F0884000B
:100408003508831380000130B5003508BF07FF3079
:10041800B5003508B907390A031D132A142AD0294B
:100428000130AE07FF302E0784000A128A112426F5
:100438000A128A11B5003508C0004008031D252A94
:10044800262A5F283F08840083138001080083124E
:1004580003138C1E302A312A3E2A0A128A11472792
:100468000A128A11F2007208F9000A128A119724F6
:100478000A128A11831203138C1D432A442A962ACE
:100488000A128A1123270A128A11F200F30172084C
:10049800F7007308F8007D2A831203135E080A1216
:1004A8008A1141270A128A11932A831203134408D6
:1004B8000A128A1141270A128A11932A83120313F6
:1004C8005A080A128A1141270A128A11932A83129A
:1004D80003135C080A128A1141270A128A11932A07
:1004E8008312031342080A128A1141270A128A1139
:1004F800932A7808003A0319822A932A7708003A3F
:100508000319502A013A0319592A033A0319622A8E
:10051800013A03196B2A073A0319742A932A83129A
:1005280003138C1176088A0075088400740E830002
:10053800FE0E7E0E09000A128A112D250A128A1152
:100548000A128A1116270A128A110B308312031312
:10055800C1004108AE005D08B0005C08AF005B0850
:10056800B2005A08B1004308B4004208B30046304C
:100578000A128A1157200A128A1122308312031391
:10058800C1004108AE004508B0004408AF005F084C
:10059800B2005E08B100A0300A128A1157200A1270
:1005A8008A1183120313A301A30A01300A128A11C4
:1005B800E8230A128A1146300A128A1186260A127C
:1005C8008A1183120313A301A30A02300A128A11A3
:1005D800E8230A128A11A0300A128A1186260A1202
:1005E8008A11831203134308803AFF0080307F0288
:1005F800031D002B073042020318032B042B092B81
:10060800FF30831203138600A92A8312031386017D
:10061800A92A0A128A110E2883160313181583169D
:1006280003178715831603139A01831203132E08E1
:10063800B2002F08B3003008B4003108B50002300A
:100648000310B20DB30DB40DB50DFF3E031D242BE1
:100658003508A3003408A2003308A1003208A0001E
:100668002E08B6002F08B7003008B8003108B900C6
:1006780002300310B60DB70DB80DB90DFF3E031DBE
:100688003D2B4030BA004230BB000F30BC00003078
:10069800BD003608BA023708031C370F542B552BF8
:1006A800BB023808031C380F5A2B5B2BBC023908D5
:1006B800031C390F602B612BBD023D08A7003C08C5
:1006C800A6003B08A5003A08A4000A128A11802354
:1006D8000A128A1183120313200883160313990040
:1006E8001812831203139817831603138C16831298
:1006F8000313181318160800003083120313AC00F4
:100708000030AB000030AA000030A9002308220402
:10071800210420040319912B922BDF2BAD01AD0A84
:10072800A22B0130A8000310A00DA10DA20DA30D4E
:10073800A80B972B0130A8002808AD07A31FA52BED
:10074800A62B952B0130A8000310A90DAA0DAB0DFF
:10075800AC0DA80BA82B23082702031DBD2B2208CC
:100768002602031DBD2B21082502031DBD2B2008D1
:100778002402031CC02BC12BD02B2008A402210863
:10078800031C210FA5022208031C220FA60223081E
:10079800031C230FA702291401300310A30CA20C79
:1007A800A10CA00CFF3E031DD12B0130AD02031D8F
:1007B800DE2BDF2BA62B2C08A3002B08A2002A086F
:1007C800A1002908A000080083120313A60026032D
:1007D800031DEF2BF02B152C23087F3EA4002408C3
:1007E800A9002908A40004300310A40CFF3E031D2F
:1007F800F82B2408A5002508A70029080F39A4000C
:100808002408A80027080A128A11E9260A128A1160
:100818008312031328080A128A11E9260A128A1178
:100828003F2C02302606031D1A2C1B2C3F2C2308B4
:10083800BF3EA4002408A9002908A400043003101E
:10084800A40CFF3E031D232C2408A5002508A7009F
:1008580029080F39A4002408A80027080A128A11B9
:10086800E9260A128A118312031328080A128A1128
:10087800E9260A128A11080000300A128A11AB26EA
:100888000A128A11073083120313A4007C30A300D4
:10089800A30B4C2CA40B4C2C000003300A128A1119
:1008A800E9260A128A11F93083120313A3005C2C7B
:1008B800A30B5B2C5F2C03300A128A11E9260A125B
:1008C8008A11662C03300A128A11E9260A128A1143
:1008D80002300A128A11E9260A128A1102300A1213
:1008E8008A11E9260A128A1108300A128A11E926A1
:1008F8000A128A1100300A128A11E9260A128A118C
:100908000C300A128A11E9260A128A1100300A12DA
:100918008A11E9260A128A1106300A128A11E92672
:100928000A128A110800CF2C79081F39F000F1014A
:10093800700883120313C4007108C500E62C7908F7
:100948001F39F000F101700883120313DE007108EB
:10095800DF00E62C79081F39F000F10170088312D6
:100968000313C2007108C300E62C79081F39F00090
:10097800F101700883120313DC007108DD00E62C16
:1009880079081F39F000F101700883120313DA00A7
:100998007108DB00E62C7908E039F000F1017108F4
:1009A800003A0319D82CC42C7008803A0319982CE3
:1009B800203A0319A32C603A0319AE2C203A0319E4
:1009C800B92CC42C080083120313A501A601200822
:1009D80021040319F02CF12C282DA701A70AFF2CBC
:1009E80001300310A00DA10DFF3E031DF52C0130B1
:1009F800A4002408A707A11F022D032DF42C013001
:100A08000310A50DA60DFF3E031D042D210823028A
:100A1800031D102D20082202031C132D142D1B2D3D
:100A28002008A2022108031CA303A30225140130F5
:100A38000310A10CA00CFF3E031D1C2D0130A702C2
:100A4800031D272D282D032D2608A1002508A00009
:100A5800080001300A128A116E250A128A118316BB
:100A680003178801890183160313051085100511E2
:100A78008511051285168312031385128316031335
:100A8800860109100A128A1140240A128A110030BC
:100A980083120313B1000030B0002530AF0080305E
:100AA800AE000A128A1110230A128A118312031344
:100AB800A001A101A20124300A128A11CB260A1230
:100AC8008A118B170B17831203138C1183160313C8
:100AD8008C15080083120313A200932D83160313A9
:100AE8000F088F3940388F00A92D831603130F087C
:100AF8008F3950388F00A92D831603130F088F39AB
:100B080060388F00A92D7030831603138F04A92D28
:100B1800831603130F088F3960388F00A92D220818
:100B2800A000A1012108003A03199B2D8C2D200853
:100B3800013A0319722D033A0319792D063A03195C
:100B4800802D0C3A0319872D8C2D0F140800831261
:100B58000313A40024080F39A1002108A2002408C7
:100B6800F039A1002108A30005142308A1000430CE
:100B78000310A10CFF3E031DBC2D21080A128A1187
:100B8800AB260A128A1183120313851402308312CA
:100B98000313A100A10BCE2D0000831203138510AF
:100BA80022080A128A11AB260A128A118312031329
:100BB8008514023083120313A100A10BE12D00005C
:100BC80083120313851008008312031328082904CD
:100BD8000319EF2DF02D1F2EAD01AD0AFE2D0130AA
:100BE8000310A80DA90DFF3E031DF42D0130AC0024
:100BF8002C08AD07A91F012E022EF32D29082B0260
:100C0800031D082E28082A02031C0B2E0C2E122E58
:100C18002808AA022908031CAB03AB020130031001
:100C2800A90CA80CFF3E031D132E0130AD02031DB5
:100C38001E2E1F2E022E2B08A9002A08A800080025
:100C480006308A000408840A82070034013400341C
:100C58000A34003464340034E8340334103427345C
:100C680025343034323464343A3425343034323430
:100C7800643420342034203420344C3475347A34AD
:100C88003A342034253430343234643400344D342A
:100C98006F3476343A3420342534643420342034A4
:100CA800543465346D3470343A3420342534303457
:100CB80032346434003483120313A401A501201CC8
:100CC800662E672E6D2E2208A4070318A50A23088E
:100CD800A50701300310A20DA30DFF3E031D6E2EC4
:100CE80001300310A10CA00CFF3E031D752E200837
:100CF8002104031D802E812E632E2508A1002408BF
:100D0800A000080083120313A800A601A7019F2EC4
:100D180026082807A5002508840000080A128A1159
:100D2800AB250A128A11013083120313A607031890
:100D3800A70A0030A70726082807A5002508840069
:100D480083130008031DA92EAA2E8C2E08008312D7
:100D58000313A000201CB12EB22EB42E0515B52EFB
:100D68000511A01CB82EB92EBB2E8515BC2E8511D9
:100D7800201DBF2EC02EC22E0516C32E0512A01D83
:100D8800C62EC72EC92E0914CA2E091008008312B0
:100D98000313A30083160313871283120313231D5F
:100DA800D62ED72EDD2E220883160313940087151E
:100DB800E32E20082204831603139400871183125C
:100DC8000313230821049400080083120313A200CC
:100DD800051022080A128A11AB260A128A118312F8
:100DE80003138514C73083120313A100FB2EA10B34
:100DF800FA2EFE2E831203138510080083120313A4
:100E0800A100A0013A30210203180B2F0C2F142F38
:100E180030302102031C112F122F142FA001A00A19
:100E2800200C080000300A128A11E9260A128A11D9
:100E380001300A128A11E9260A128A1108000A12D8
:100E48008A1134270A128A1183120313130808001F
:100E580064008001840A04060319003404062D2F57
:100E680083160313141C392F3A2F342F08000F341C
:100E780000340F34003418340034F0007008831242
:100E8800031393000800831203131A0808000A3496
:020E9800003424
:08400000FF3FFF3FFF3FFF3FC0
:04400E00D420FF3E7D
:00000001FF
