:060000000A128A110C280F
:10000800FE00030EF1000A08F2000A128A119B2C66
:100018000A128A110F28FA0183132030840048300D
:100028000A128A11BD240A128A1183010A128A113E
:10003800E32983120313E2005030DA005A08DD0086
:10004800F0282530630603192A282B283728630847
:10005800DA00620884005A08831380000130DA004D
:100068005A08E207F028DE010130CF07FF304F07BA
:1000780084000A128A11A9230A128A11E300DA00FD
:10008800DB015B08003A03194A28F0285A08003AAD
:1000980003190229643A031955280D3A03195528FA
:1000A800F0285D08840083130008E000840A000833
:1000B800E1000230DA005A08DD07E11F64286528EC
:1000C8006E280330DA005A08DE04E009E109E00A84
:1000D8000319E10AE301E30A6308DA005A07013E5B
:1000E80084000A128A11A9230A128A11DB000A1253
:1000F8008A11A9230A128A11DC005C086102031D17
:1001080087285B08600203188A288B288C28962881
:100118000130DA005A08E30705306306031D952805
:10012800962870285E08033903199B289C28A7285D
:100138002D30DA00620884005A08831380000130E9
:10014800DA005A08E2076308DA005A08DF00E728ED
:100158000A30CB000030CC005F08DA005A07013EB5
:1001680084000A128A11A9230A128A11F3000A12BA
:100178008A11A9230A128A11F4006108F60060089E
:10018800F5000A128A11EC220A128A1174088312E5
:100198000313CE007308CD000A128A1132230A1203
:1001A8008A11831203134B08303EDB005B08E3001F
:1001B8006308DA00620884005A088313800001305B
:1001C800DA005A08E207FF30DA005A08DF075F0A48
:1001D800031DEF28F028AC280130CF07FF304F0768
:1001E80084000A128A11A9230A128A11DA005A080D
:1001F800E3006308031D01290229252862088400F9
:100208008313800108008316031318158316031738
:100218008715831603139A01831203135008D40019
:100228005108D5005208D6005308D70002300310F1
:10023800D40DD50DD60DD70DFF3E031D1B2957082C
:10024800CB005608CA005508C9005408C800500811
:10025800D8005108D9005208DA005308DB000230F0
:100268000310D80DD90DDA0DDB0DFF3E031D34291F
:100278004030DC004230DD000F30DE000030DF00AF
:100288005808DC025908031C590F4B294C29DD0278
:100298005A08031C5A0F51295229DE025B08031C15
:1002A8005B0F57295829DF025F08CF005E08CE0090
:1002B8005D08CD005C08CC000A128A117B210A1265
:1002C8008A1183120313480883160313990018121E
:1002D8008312031398171813831603131813981609
:1002E800831203131816831603138C1608000030A4
:1002F800F7000030F6000030F5000030F4008312FB
:1003080003134B084A044904480403198C298D290E
:10031800DA29F801F80A9D290130F3000310C80D05
:10032800C90DCA0DCB0DF30B92290130F3007308E8
:10033800F807CB1FA029A12990290130F300031049
:10034800F40DF50DF60DF70DF30BA3294B084F022D
:10035800031DB8294A084E02031DB82949084D0251
:10036800031DB82948084C02031CBB29BC29CB290A
:100378004808CC024908031C490FCD024A08031C4F
:100388004A0FCE024B08031C4B0FCF0274140130E6
:100398000310CB0CCA0CC90CC80CFF3E031DCC299A
:1003A8000130F802031DD929DA29A1297708CB00E1
:1003B8007608CA007508C9007408C80008000A123F
:1003C8008A1117240A128A110A128A11B0240A12F1
:1003D8008A110B3083120313E4006408CF00023043
:1003E800D0000030D1000330D2000030D3000430F8
:1003F800D4000030D5000230D6000030D7005F307E
:10040800D8000030D90034300A128A111D200A128F
:100418008A11203083120313E4006408CF000130EE
:10042800D0000030D1001430D2000030D30020308A
:100438000A128A111D200A128A11F601F60A0130E1
:100448000A128A1141220A128A1134300A128A11B8
:100458003C240A128A11F601F60A02300A128A119D
:1004680041220A128A1120300A128A113C240A12E7
:100478008A11ED290A128A110C2883120313C80065
:100488004803031D482A492A6E2A76087F3EF7004A
:100498007708CB004B08F70004300310F70CFF3E39
:1004A800031D512A7708F8007808C9004B080F394E
:1004B800F7007708CA0049080A128A1183240A1229
:1004C8008A11831203134A080A128A1183240A1212
:1004D8008A11982A02304806031D732A742A982A1A
:1004E8007608BF3EF7007708CB004B08F7000430CA
:1004F8000310F70CFF3E031D7C2A7708F8007808E4
:10050800C9004B080F39F7007708CA0049080A12D2
:100518008A1183240A128A11831203134A080A12C1
:100528008A1183240A128A11080000300A128A11DB
:1005380061240A128A110730F7007D30F600F60BA5
:10054800A32AF70BA32A03300A128A1183240A125A
:100558008A11F930F600B02AF60BAF2AB32AB42A6A
:1005680003300A128A1183240A128A11BB2A033023
:100578000A128A1183240A128A1102300A128A1175
:1005880083240A128A1102300A128A1183240A1259
:100598008A1108300A128A1183240A128A1100303B
:1005A8000A128A1183240A128A110C300A128A113B
:1005B80083240A128A1100300A128A1183240A122B
:1005C8008A1106300A128A1183240A128A11080035
:1005D80083120313C901CA01730874040319F52AA5
:1005E800F62A2D2BC801C80A042B01300310F30D7D
:1005F800F40DFF3E031DFA2A0130F7007708C807FB
:10060800F41F072B082BF92A01300310C90DCA0D56
:10061800FF3E031D092B74087602031D152B730872
:100628007502031C182B192B202B7308F50274086C
:10063800031CF603F602491401300310F40CF30C02
:10064800FF3E031D212B0130C802031D2C2B2D2B2F
:10065800082B4A08F4004908F30008008312031322
:100668004B084C040319392B3A2B692BF901F90A69
:10067800482B01300310CB0DCC0DFF3E031D3E2B44
:100688000130F8007808F907CC1F4B2B4C2B3D2B79
:100698004C084E02031D522B4B084D02031C552BD0
:1006A800562B5C2B4B08CD024C08031CCE03CE0204
:1006B80001300310CC0CCB0CFF3E031D5D2B013029
:1006C800F902031D682B692B4C2B4E08CC004D08F2
:1006D800CB000800F500912B831603130F088F3900
:1006E80040388F00A72B831603130F088F39503813
:1006F8008F00A72B831603130F088F3960388F00DC
:10070800A72B7030831603138F04A72B83160313AC
:100718000F088F3960388F00A72B7508F300F40194
:100728007408003A0319992B8A2B7308013A0319A4
:10073800702B033A0319772B063A03197E2B0C3AD0
:100748000319852B8A2B0F14080003308A0004082C
:10075800840A82070034013400340A3400346434D3
:100768000034E83403341034273425346434253411
:1007780064343A34253464342534643420340934F8
:10078800093420344C3475347A343A3420342534DE
:10079800643400344D346F3476343A34203425349C
:1007A800643420340934543465346D3470343A3444
:1007B8002034253464340034F70077080F39F40006
:1007C8007408F5007708F039F4007408F60083120D
:1007D800031305147608F40004300310F40CFF3EEC
:1007E800031DF12B74080A128A1161240A128A1156
:1007F8008312031385140330F400F40B012C8312C5
:100808000313851075080A128A1161240A128A11C5
:100818008312031385140330F400F40B112C831294
:1008280003138510080001300A128A116E230A1278
:100838008A1183160317880189018316031385011A
:1008480086010A128A1199220A128A11003083122B
:100858000313D3000030D2002530D1008030D000FF
:100868000A128A1107210A128A118B170B1708001E
:1008780083120313CA00C801C901552C48084A0746
:10088800F8007808840000080A128A11E0230A1286
:100898008A11013083120313C8070318C90A0030EC
:1008A800C90748084A07F800780884008313000835
:1008B800031D5F2C602C422C0800F300731C652C70
:1008C800662C6A2C8312031305156D2C83120313EF
:1008D8000511F31C702C712C732C8515742C851143
:1008E800731D772C782C7A2C05167B2C0512F31D9A
:1008F8007E2C7F2C812C8516822C85120800F50011
:1009080083120313051075080A128A1161240A124A
:100918008A11831203138514C730F400932CF40B47
:10092800922C962C972C831203138510080083129F
:1009380003138C1EA02CA12CA92C0A128A11C524E1
:100948000A128A11F0007008FA0072088A00710E03
:100958008300FE0E7E0E090000300A128A118324DD
:100968000A128A1101300A128A1183240A128A1182
:10097800080064008001840A040603190034040690
:0A098800BE2C831203131A080800A6
:08400000FF3FFF3FFF3FFF3FC0
:04400E00D420FF3E7D
:00000001FF
